:100000000C9434000C943E000C9440000C943E0080
:100010000C943E000C943E000C943E000C943E0068
:100020000C943E000C943E000C943E000C943E0058
:100030000C943E000C943E000C943E000C943E0048
:100040000C943E000C943E000C943E000C943E0038
:100050000C943E000C943E000C943E000C943E0028
:100060000C943E000C943E0011241FBECFEFD8E04C
:10007000DEBFCDBF0E9452000C945D000C940000C6
:100080001F920F920FB60F9211248F939F9395B1E9
:1000900082E0892785B99F918F910F900FBE0F90B5
:1000A0001F901895219A809169008860809369005B
:0E00B000E99A8FB780688FBFFFCFF894FFCF1B
:00000001FF
