:100000000C9434000C943E000C943E000C943E0082
:100010000C943E000C943E000C943E000C943E0068
:100020000C943E000C943E000C943E000C943E0058
:100030000C943E000C943E000C943E000C943E0048
:100040000C943E000C943E000C943E000C943E0038
:100050000C943E000C943E000C943E000C943E0028
:100060000C943E000C943E0011241FBECFEFD8E04C
:10007000DEBFCDBF0E9458000C945E000C940000BF
:100080001092C5008093C400E2ECF0E080818660AD
:100090008083E1ECF0E080818860808380E88FBF1E
:1000A00008959091C00095FFFCCF8093C6000895FD
:1000B00088E00E9440008AE50C945100F894FFCF3C
:00000001FF
