:100000000C9434000C9453000C9451000C94510047
:100010000C9451000C9451000C9451000C9451001C
:100020000C9451000C9451000C9451000C9451000C
:100030000C9451000C9451000C9451000C945100FC
:100040000C9451000C9451000C9451000C945100EC
:100050000C9451000C9451000C9451000C945100DC
:100060000C9451000C94510011241FBECFEFD8E026
:10007000DEBFCDBF11E0A0E0B1E0E6EAF1E002C0F2
:1000800005900D92AA30B107D9F721E0AAE0B1E0BE
:1000900001C01D92AE30B207E1F70E9484000C94BB
:1000A000D1000C9400001F920F920FB60F921124F2
:1000B0002F933F938F939F93EF93FF9320910A0188
:1000C000822F90E0FC01EA5FFE4F308130930D01FA
:1000D000FC01ED5FFE4F308130930C01FC01E050DC
:1000E000FF4F808180930B01223008F020E02093A5
:1000F0000A01FF91EF919F918F913F912F910F9066
:100100000FBE0F901F90189580918000806880939B
:1001100080008091800082608093800080918100C7
:1001200088618093810083E294EF909387008093AD
:100130008600809181008460809381008091860098
:100140009091870020910C0164E670E00E94BD0050
:10015000269FC001279F900D1124909389008093C2
:10016000880088E68AB9809169008260809369007E
:10017000E89A8FB780688FBFFFCFAA1BBB1B51E1E6
:1001800007C0AA1FBB1FA617B70710F0A61BB70B07
:10019000881F991F5A95A9F780959095BC01CD01AC
:0601A0000895F894FFCF62
:0A01A600FFE98200FD00FF254B0079
:00000001FF
