:100000000C9434000C9446000C9446000C9446006A
:100010000C9446000C9446000C9446000C94460048
:100020000C9446000C9446000C9446000C94E3009B
:100030000C9446000C9446000C9446000C94460028
:100040000C9446000C9446000C9488000C944600D6
:100050000C9446000C9446000C9446000C94460008
:100060000C9446000C94460011241FBECFEFD8E03C
:10007000DEBFCDBF21E0A0E0B1E001C01D92A830FD
:10008000B207E1F70E9421010C947C010C9400005E
:100090001092C5008093C400E2ECF0E080818C6394
:1000A0008083E1ECF0E080818869808308959091FD
:1000B000C00095FFFCCF8093C60008958091C000DA
:1000C00087FFFCCF8091C60008958FEF85B981E04E
:1000D00090E0909303018093020108958FEF85B91A
:1000E00008951092070110920601109205011092D6
:1000F000040110920301109202011092010110926A
:10010000000115B8892B19F082E70C945700089567
:100110001F920F920FB60F9211242F933F934F937C
:100120005F936F937F938F939F93AF93BF93EF935F
:10013000FF938091C600833769F481E090E090934B
:100140000501809304012FEF25B99093030180935B
:10015000020128C0833621F485B1880F85B922C0F9
:10016000873659F4109203011092020181E090E069
:10017000909301018093000115C0873729F48FEF18
:1001800085B981E090E00CC08C3631F41092010109
:100190001092000115B806C0823721F480E090E08B
:1001A0000E947100FF91EF91BF91AF919F918F914C
:1001B0007F916F915F914F913F912F910F900FBE63
:1001C0000F901F9018951F920F920FB60F92112447
:1001D0002F933F934F935F936F937F938F939F934F
:1001E000AF93BF93EF93FF9380910201909103012E
:1001F000019731F485B1880F85B983E60E945700D5
:1002000085B1803F69F4109203011092020181E0F0
:1002100090E0909301018093000187E60E945700CF
:10022000FF91EF91BF91AF919F918F917F916F91CE
:100230005F914F913F912F910F900FBE0F901F90A4
:1002400018958FEF84B9219A8AB18AB987E60E94FE
:10025000480081E090E00E94710088E08093810076
:100260008091810084608093810083E294EF909379
:1002700089008093880080916F00826080936F0076
:100280008FB780688FBFCFEF01E010E04B99FECFB2
:100290008091060190910701892B81F480910401DE
:1002A00090910501892B51F41093070100930601E9
:1002B00083E70E9457000E94650015C080910201EB
:1002C00090910301892B29F087E70E94570015B808
:1002D0000AC08091000190910101892B21F08CE6E8
:1002E0000E945700C5B980E095E3ACE0B0E001970B
:0C02F000A109B109E1F7CACFF894FFCFD3
:00000001FF
